{
  "contractName": "MessageEth",
  "abi": [
    {
      "constant": true,
      "inputs": [
        {
          "name": "",
          "type": "bytes32"
        }
      ],
      "name": "messagesReceived",
      "outputs": [
        {
          "name": "",
          "type": "uint8"
        }
      ],
      "payable": false,
      "stateMutability": "view",
      "type": "function"
    },
    {
      "constant": true,
      "inputs": [
        {
          "name": "",
          "type": "uint256"
        }
      ],
      "name": "messageList",
      "outputs": [
        {
          "name": "",
          "type": "bytes32"
        }
      ],
      "payable": false,
      "stateMutability": "view",
      "type": "function"
    },
    {
      "constant": true,
      "inputs": [
        {
          "name": "thread",
          "type": "bytes32"
        }
      ],
      "name": "totalMessagesFor",
      "outputs": [
        {
          "name": "",
          "type": "uint8"
        }
      ],
      "payable": false,
      "stateMutability": "view",
      "type": "function"
    },
    {
      "constant": false,
      "inputs": [
        {
          "name": "thread",
          "type": "bytes32"
        }
      ],
      "name": "addMessageForThread",
      "outputs": [],
      "payable": false,
      "stateMutability": "nonpayable",
      "type": "function"
    },
    {
      "inputs": [
        {
          "name": "messages",
          "type": "bytes32[]"
        }
      ],
      "payable": false,
      "stateMutability": "nonpayable",
      "type": "constructor"
    }
  ],
  "bytecode": "0x6060604052341561000f57600080fd5b604051610308380380610308833981016040528080518201919050508060019080519060200190610041929190610048565b50506100c0565b82805482825590600052602060002090810192821561008a579160200282015b82811115610089578251829060001916905591602001919060010190610068565b5b509050610097919061009b565b5090565b6100bd91905b808211156100b95760008160009055506001016100a1565b5090565b90565b610239806100cf6000396000f300606060405260043610610062576000357c0100000000000000000000000000000000000000000000000000000000900463ffffffff1680631c120c4114610067578063a0c121d7146100a8578063e917816c146100e7578063f42bc9ad14610128575b600080fd5b341561007257600080fd5b61008c60048080356000191690602001909190505061014f565b604051808260ff1660ff16815260200191505060405180910390f35b34156100b357600080fd5b6100c9600480803590602001909190505061016f565b60405180826000191660001916815260200191505060405180910390f35b34156100f257600080fd5b61010c600480803560001916906020019091905050610193565b604051808260ff1660ff16815260200191505060405180910390f35b341561013357600080fd5b61014d6004808035600019169060200190919050506101c4565b005b60006020528060005260406000206000915054906101000a900460ff1681565b60018181548110151561017e57fe5b90600052602060002090016000915090505481565b6000806000836000191660001916815260200190815260200160002060009054906101000a900460ff169050919050565b6001600080836000191660001916815260200190815260200160002060008282829054906101000a900460ff160192506101000a81548160ff021916908360ff160217905550505600a165627a7a72305820a19c29f477d4da9315cebd30cd9767a468da1bb4052826c464940f4f2ae46df90029",
  "source": "pragma solidity ^0.4.17;\n// We have to specify what version of compiler this code will compile with\n\ncontract MessageEth {\n  /* mapping field below is equivalent to an associative array or hash.\n  */\n  \n  mapping (bytes32 => uint8) public messagesReceived;\n  \n  /* We will use an array of bytes32 instead to store the list of messages\n  */\n  \n  bytes32[] public messageList;\n\n  /* This is the constructor which will be called once when you\n  deploy the contract to the blockchain. When we deploy the contract,\n  we will pass an array of messages for which users will transacting\n  */\n  function MessageEth(bytes32[] messages) public {\n    messageList = messages;\n  }\n\n  // This function returns the total messages has received so far\n  function totalMessagesFor(bytes32 thread) view public returns (uint8) {\n    return messagesReceived[thread];\n  }\n\n  // This function increments the message count for the specified thread.\n  function addMessageForThread(bytes32 thread) public {\n    messagesReceived[thread] += 1;\n  }\n}",
  "sourcePath": "/Volumes/Work/dapp/message/contracts/MessageEth.sol",
  "compiler": {
    "name": "solc",
    "version": "0.4.18+commit.9cf6e910.Emscripten.clang"
  },
  "schemaVersion": "1.0.1",
  "updatedAt": "2019-07-12T03:39:25.043Z"
}